:10700000EFC10000B8C50000B6C50000B4C500005F
:10701000B2C50000B0C50000AEC50000ACC50000A0
:10702000AAC50000A8C50000A6C50000A4C50000B0
:10703000A2C50000A0C500009EC500009CC50000C0
:107040009AC5000098C5000096C5000094C50000D0
:1070500092C5000090C500008EC500008CC50000E0
:107060008AC5000088C500005573696E67204375A6
:1070700073746F6D204574682043532050696E3AD5
:10708000200053504920696E697420646F6E65005A
:10709000205370693A20000102040810204080014A
:1070A000020408102001020408102000000000243F
:1070B0000027002A0000000000250028002B000403
:1070C000040404040404040202020202020303038F
:1070D00003030345746865726E65742052657365B9
:1070E000742070696E20646566696E6564202D2069
:1070F000706572666F726D696E6720726573657414
:10710000004E6574776F726B20696E697420646FCE
:107110006E650009202020204D41433A2000094798
:107120006174657761793A200009205375626E6554
:10713000743A200009416464726573733A20004216
:1071400075696C742D696E2073657474696E6773EC
:1071500000454550524F4D2073657474696E6773D6
:1071600000204E65743A2000526573706F6E73652F
:107170002073656E740053656E742046696E616C91
:107180002041434B0053656E742041434B00000582
:10719000000346756C6C00000500044F70636F645B
:1071A000653F00000500004572726F720042414465
:1071B00020696D616765207369676E6174757265BA
:1071C00020646574656374656400476F6F6420694B
:1071D0006D616765207369676E617475726520649F
:1071E0006574656374656400557064617465204DF1
:1071F0006F646520526571756573746564004174D0
:1072000068656E6120666F722041726475696E6F89
:1072100020556E6F2C2056657273696F6E20313168
:107220002E332E3130004D61696E3A2000496E696F
:107230007420736F636B657420646F6E6500536FA9
:10724000636B6574206F70656E206572726F72007B
:10725000536F636B657420636C6F73652065727226
:107260006F723A2000496E697420736F636B6574A6
:1072700020746F20706F72742000496E76616C69A3
:1072800064206F70636F646520004572726F7200D6
:1072900041636B6E6F776C6564676500466C617304
:1072A00068696E6720636F6D706C6574650050610E
:1072B000636B6574206C656E6774682061646A75C1
:1072C0007374656420746F200057726974696E6707
:1072D00020646174612066726F6D20616464726500
:1072E00073732000466C6173682069732066756C47
:1072F0006C004461746120626C6F636B0043686171
:107300006E67656420746F20706F7274200057720E
:107310006974652072657175657374005265616486
:1073200020726571756573740020616E64206461FC
:107330007461206C656E67746820002077697468DA
:10734000206F70636F6465200054686973206973EF
:1073500020626C6F636B200053657420757020721F
:10736000657475726E2061646472657373004F7624
:107370006572666C6F770050726F63657373696EC8
:1073800067207061636B6574206F662073697A652E
:1073900020000944617461506F72743A20005446B1
:1073A00054502073657276657220696E697420731B
:1073B00075636365737366756C005446545020732F
:1073C000657276657220696E6974206661696C65A4
:1073D0006400546674703A20000D0A003078000092
:1073E00011241FBECFEFD8E0DEBFCDBF11E0A0E07B
:1073F000B1E0EAE7F2E802C005900D92A232B107CF
:10740000D9F721E0A2E2B1E001C01D92A333B20797
:10741000E1F701D030C7CDB7DEB7C150D140DEBFF4
:10742000CDBF112484B714BE8D7089F082E090E046
:107430000CD78E3E61F40FB6F894A8958091600049
:10744000886180936000109260000FBEF1D488E1E3
:1074500099E20FB6F894A895809360000FBE9093C0
:10746000600084E08093810090E080E0EED681307F
:1074700021F061E090E080E0F0D681E090E0E5D698
:10748000833021F063E081E090E0E7D681E490E092
:10749000DCD68B3021F06BE081E490E0DED682E434
:1074A00090E0D3D6833021F063E082E490E0D5D63B
:1074B00083E490E0CAD68A3021F06AE083E490E069
:1074C000CCD682E08093C00088E18093C10086E042
:1074D0008093C20080E18093C4006EEF71E786E282
:1074E00092E7BCD382E090E0B0D68D3D09F0E2C1D6
:1074F0006EEE82E090E0B1D681E08093290168EEE3
:1075000071E786E292E7AAD31CBC84E085B98CE2DD
:1075100084B984E490E099D6182F8F3F61F168E632
:1075200070E780E990E79AD3612F70E090E080E007
:1075300044E06ED3812F90E0FC01E154FF48249198
:1075400030E0220F331FF901EB54FF48459154916D
:107550005093200140931F01F901E555FF48259103
:1075600034913093010120930001FC01E956FF485A
:10757000E491E0931E01E0911F01F09120019081C0
:1075800080911E01982B9083E0910001F091010100
:107590009081892B80835C9A549A80E58CBD81E030
:1075A0008DBD62E870E780E990E758D385E490E00C
:1075B0004CD6182F8F3F09F441C063ED70E781E688
:1075C00091E74CD3612F70E090E080E044E020D35D
:1075D000812F90E0FC01E154FF48249130E0220F1C
:1075E000331FF901EB54FF48A591B491F901E5551A
:1075F000FF4825913491FC01E956FF4844918C9154
:10760000842B8C93F9018081842B80839C91842F1F
:10761000809589238C938FE19EE40197F1F700C058
:1076200000008C91E42FE82BEC939FEFEDEEF2E05D
:107630009150E040F040E1F700C0000083E090E0AE
:1076400004D6853509F03EC184E090E0FED58A3A43
:1076500009F038C113E0E12E11E0F12E05E010E051
:10766000C801F3D5F70181937F010F5F1F4F0731E9
:107670001105B1F761E571E781E691E7EFD264E3C7
:1076800071E781E691E7EAD2B1E1EB2EB1E0FB2EA2
:107690001FE0F70161917F0170E090E080E042E03F
:1076A000B7D2123111F08EE27DD21F5F133189F70C
:1076B00069E271E781E691E7D1D2A7E0EA2EA1E085
:1076C000FA2E15E0F70161917F0170E090E080E013
:1076D00042E09ED2183011F08EE264D21F5F193062
:1076E00089F76EE171E781E691E7B8D2F3E0EF2E1A
:1076F000F1E0FF2E11E0F70161917F0170E090E071
:1077000080E042E085D2143011F08EE24BD21F5F50
:10771000153089F763E171E781E691E79FD2EBE0ED
:10772000EE2EE1E0FE2E19E0F70161917F0170E09D
:1077300090E080E042E06CD21E3011F08EE232D256
:107740001F5F1F3089F772E0E72E71E0F72E10E01F
:1077500000E0F70141917F0164E0C801D1D20F5FE1
:107760001F4F0C311105A9F71CE068E0E62EF12C43
:1077700042E0612F8EE190E0C3D242E0612F8FE1C1
:1077800090E0BED2F1E0EF1AF108105EE114F104CE
:1077900079F761E071E781E691E760D24CD310920E
:1077A000280110922701332433948E010F5F1F4F5D
:1077B0002E0121E8420E511C53E0D52EB12CA12CF4
:1077C000809128018111D5C0809130018111D1C0F3
:1077D00086E290E085D2892B09F4CBC03092270154
:1077E00068E682E090E056D282FD6FC086E290E0CB
:1077F00077D25ED3CF5FDE4F8883C150D14084E221
:1078000090E06ED27C01CF5FDE4FF881C150D14055
:10781000F23009F496C008F067C0F13009F47FC077
:107820004AE050E063EA71E7C80106D54AE0C42E99
:1078300038012C2C4701801A910AC401860D971D2E
:107840002A94FFEF2F128FC0B7016C0D711D84E2D7
:1078500090E07ED240E26CE681E090E051D268E6B2
:1078600081E090E017D28111FACF68E671E782EDEE
:1078700093E7F4D1CF5FDE4F2881C150D14024304F
:1078800009F077C040E16CE681E090E039D20FB6B4
:10789000F894A895809160008861809360001092B0
:1078A00060000FBEC5D290E080E0CF5FDE4FDEBF4C
:1078B000CDBF08956AEC71E78E3E09F422CE6DEAE1
:1078C00071E71FCE6FE371E7D7CE44E06CE682E04C
:1078D00090E016D28FEF97E8E3E181509040E040CE
:1078E000E1F700C000007CCFCF5FDE4F2881C150A0
:1078F000D1402330E9F066E771E7243009F090CFFA
:1079000082ED93E7ABD1198284E08A8380912A01CA
:1079100090912B019B838C8394E0C92E89CF4CE0FE
:1079200050E067E971E7C80187D43CE0C32E80CFFF
:1079300049E050E06EE871E7C8017ED429E0C22E2C
:1079400077CF80912A0190912B0120912C013091C9
:107950002D012817390720F490932D0180932C01D5
:1079600065E871E7CDCFF30141913F0164E7C8D1EC
:1079700064CF80912701811116C08091C00087FFDC
:1079800012C0FAD03092280101D1813409F04EC0E2
:10799000FDD0F82E0ED181E8F81609F445C083E039
:1079A00001D180E1FFD0F501859194910196E1F03C
:1079B00080913101909132010A97B0F082E090E01D
:1079C00044D48E3E29F480912901882309F45FCFA5
:1079D00080912701813041F4F501D0925700E8955C
:1079E0002AD2CAD010922701A89520918400309104
:1079F000850034FFBEC085B190E2892785B98091AA
:107A00002501909126012817390748F4809131010A
:107A1000909132010196909332018093310130931D
:107A2000260120932501CCCE8BE0BACF823419F405
:107A300084E1CBD0B6CF853411F484E0FACF85351C
:107A400069F4A4D0E82EF12CA1D0F82AEE0CFF1C8A
:107A5000F0922401E0922301ACD0A3CF863521F42B
:107A600084E0B3D080E09CCF843609F04CC08ED047
:107A70008DD0809322018AD0E0902301F0902401E0
:107A8000E11490E7F90620F4F701D0925700E89549
:107A900048017CD0F40181934F01809122018150F3
:107AA000809322018111F5CFE114F0E7FF0620F069
:107AB000F701D0925700E8957CD007B600FCFDCFC7
:107AC0008981D8019701201B310BF901EA0FFB1FB7
:107AD00011969C9111970C0130925700E895112452
:107AE00012964A165B0611F08C91EFCF25E0F70154
:107AF00020935700E89507B600FCFDCF81E1809305
:107B00005700E8954ECF8437D1F440D03FD08093D2
:107B100022013CD04ED0E0912301F0912401CF010D
:107B20000196909324018093230184913BD080910E
:107B300022018150809322018111EDCF32CF853710
:107B400039F437D08EE12ED085E92CD08FE028CFC4
:107B5000813509F081CF2DD06EEE82E090E07DD3AB
:107B600080E120D0EFE9FFE03197F1F700C000009D
:107B70008ECE2D9844CF44CA109285001092840076
:107B80001092320110923101A89508958091C000A1
:107B900087FFFCCF8091C00084FD01C0A895809133
:107BA000C60008959091C00095FFFCCF8093C60059
:107BB0000895ECDF803239F088E18093600088E03E
:107BC00080936000FFCF84E1EDCFCF93C82FDEDF3D
:107BD000C150E9F7CF91EDCF8F708A3008F0895FFF
:107BE000805DE0CF0F931F93CF93DF938C01D0E0A4
:107BF000F801ED0FF11DC491CC2311F08C2FD2DFD1
:107C0000DF5FC111F5CFDF91CF911F910F910895E3
:107C1000CF92DF92EF92FF92CF936B017C01C42F42
:107C20008CED93E7DFDF2C2F2150330BC901880F38
:107C3000991F880F991FA701960104C05695479573
:107C4000379527958A95D2F7C901C6DFC15059F7F4
:107C5000CF91FF90EF90DF90CF9008950F931F93F7
:107C6000CF93DF938C01EB0189ED93E7BBDFC80174
:107C7000B9DFCE01DF91CF911F910F91B3CFE0918A
:107C80001F01F0912001908180911E018095892330
:107C9000808308951F93CF93DF93EC01162FEFDFBE
:107CA0008D2F99278EBD0DB407FEFDCFCEBD0DB42F
:107CB00007FEFDCF1EBD0DB407FEFDCF1EBC0DB4EB
:107CC00007FEFDCFE0911F01F0912001808190918E
:107CD0001E01892B80838EB5DF91CF911F9108956E
:107CE0001F93CF93DF93EC0168E6D4DF182F68E68B
:107CF000CE010196CFDF912FDF91CF911F91089593
:107D00000F931F93CF93DF93EC01062F142FB7DF50
:107D10008D2F99278EBD0DB407FEFDCFCEBD0DB4BE
:107D200007FEFDCF0EBD0DB407FEFDCF1EBD0DB489
:107D300007FEFDCFE0911F01F0912001808190911D
:107D40001E01892B8083DF91CF911F910F910895A0
:107D50000F931F93CF93DF93EC018B01472F552790
:107D60006CE6CE01CDDF402F6CE6CE010196DF91AF
:107D7000CF911F910F91C4CF0F931F93CF93DF9398
:107D80008C0165E672E782ED93E768DFB80190E069
:107D900080E044E03DDF40E16CE681E090E0B0DF70
:107DA000D1E868E681E090E075DFC82FD15079F422
:107DB00060E572E782ED93E751DF8C2F0DDF81E004
:107DC00080933001DF91CF911F910F910895811120
:107DD000E8CFD1E84FEF6CE682E090E091DF42E03F
:107DE0006CE690E080E08CDFB80184E090E0B0DFEA
:107DF00041E06CE681E090E083DF68E681E090E0BE
:107E000049DF8111FACFD15019F46EE372E7D2CF76
:107E100068E683E090E03EDFC82F8232D9F66DE25B
:107E200072E782ED93E7DF91CF911F910F9116CF0B
:107E3000EE27FF270994CF931092300185E490E05C
:107E40009BDF87E190E001D28B3BE1F489E190E098
:107E5000FCD1C82F88E190E0F8D12C2F30E0322FF0
:107E60002227820F932F911D90932F0180932E0133
:107E700080913001882349F06AEB73E782ED93E744
:107E8000CF91ECCE89E797EBEFCF6EE973E782ED08
:107E900093E7E4DE62E973E782ED93E7DFDE60916A
:107EA0002E0170912F0190E080E044E0CF91B0CEA0
:107EB0007F928F929F92AF92BF92CF92DF92EF927A
:107EC000FF920F931F93CF93DF93CDB7DEB7CC50C4
:107ED000D240DEBFCDBF8C0167E773E782ED93E749
:107EE000BDDEB80190E080E044E092DE011518406C
:107EF00028F06EE673E782ED93E7B0DE88E290E06B
:107F0000EFDE8C01CE0101965C016E0193EFC91A80
:107F10009DEFD90A750148018A189B08C4018E0D8E
:107F20009F1DCE14DF0409F074C0B801645F7D4F5B
:107F300088E290E00DDF40E46CE681E090E0E0DE76
:107F400068E681E090E0A6DE782E8111F9CF750118
:107F50000CE010E0F70141917F016CE6C801D0DE32
:107F60000F5F1F4F02311105A9F768E573E782ED36
:107F700093E774DE8F80912C982C88248885880E56
:107F8000911C698570E0762F6627EA84E60EF72E4D
:107F9000F11C0B8510E0102F00278C85080F111D98
:107FA00069E473E782ED93E759DEB80190E080E081
:107FB00044E02EDE8BE393E715DEB70190E080E02E
:107FC00044E026DE89E293E70DDE6401F4E0CF1A97
:107FD000D108B60190E080E044E01ADE23E0E2162A
:107FE000F104E9F40933110588F480912C01909192
:107FF0002D010817190750F001968017910730F0EE
:1080000025E0821622E0920608F475C0F12CE12CDE
:1080100017C068E73FDEF70181937F017FCF85E0DE
:10802000881682E0980690F794E0E916F104D4F4FB
:10803000E1E0EE16F10429F1F2E0EF16F10421F18E
:108040006AE772E782ED93E709DEB70190E080E02E
:1080500044E0DEDD80912E0190912F018DDE7724AA
:10806000739436C024E0E216F10409F4DFC06AE834
:1080700072E785E0E816F10419F782ED93E7EEDD8B
:1080800027C06CE173E7F9CF77DD6EE073E782ED2F
:1080900093E7E4DD6FEF82E090E0DFD000912E0106
:1080A00010912F01C80168DE6DEF72E782ED93E752
:1080B000D5DDB80190E080E044E0AADD10922D010A
:1080C00010922C0110922B0110922A0152E0752E71
:1080D000872DC45FDD4FDEBFCDBFDF91CF911F91F4
:1080E0000F91FF90EF90DF90CF90BF90AF909F9057
:1080F0008F907F90089540DD62EF72E782ED93E705
:10810000ADDD10932B0100932A0101501109102FAE
:108110000027110FC601800F911F8130904740F05A
:1081200064EE72E782ED93E799DD33E0732ED0CFF2
:1081300069EC72E782ED93E791DDB80190E080E0B1
:1081400046E066DD22E0722EC114F2E0DF0630F474
:1081500094E0792E03C02FEFC21AD20A7601E89478
:10816000E7F8FF24E114F104B1F76EEA72E782ED5B
:1081700093E774DDB60190E080E044E049DD01154D
:10818000110579F4C501C496F50124852C3009F058
:1081900050C02585243909F04CC034968E179F07AE
:1081A000A1F7D50141E0C8018A199B098C010E573E
:1081B000110953E065E071E129C01D963C911D97BE
:1081C0001C962C911C97FC01EA0FFB1F09014093A0
:1081D0005700E8951124E2E0EE0EF11C97012F778D
:1081E0003327232B91F4F801EA0FFB1F509357001C
:1081F000E89507B600FCFDCF60935700E89507B6F9
:1082000000FCFDCF70935700E8951296EC14FD0426
:10821000A0F2F4E07F125CCF6CE972E782ED93E7A5
:108220001DDD6EEE82E090E018D052CF60E972E77B
:1082300024CF85E0782E4CCFFB01DC0102C00590F5
:108240000D9241505040D8F70895F999FECF92BD54
:1082500081BDF89A992780B50895262FF999FECF08
:108260001FBA92BD81BD20BD0FB6F894FA9AF99A53
:0A8270000FBE01960895F894FFCFA9
:10827A00240080C0A80101FFFFFF00AABBCCDDEEED
:10828A00F1C0A8018200000000000007D008042500
:02829A000000E2
:040000030000700089
:00000001FF
