:1070000061C0000075C3000073C3000071C30000BD
:107010006FC300006DC300006BC3000069C30000B4
:1070200067C3000065C3000063C3000061C30000C4
:107030005FC300005DC300005BC3000059C30000D4
:1070400057C3000055C3000053C3000051C30000E4
:107050004FC300004DC300004BC3000049C30000F4
:1070600047C3000045C3000001020408102040800F
:107070000102040810200102040810200000000092
:10708000240027002A0000000000250028002B0013
:1070900004040404040404040202020202020303BE
:1070A000030303030005000346756C6C0000050034
:1070B000044F70636F64653F000005000045727205
:1070C0006F72000011241FBECFEFD8E0DEBFCDBF2E
:1070D00011E0A0E0B1E0E8ECFBE702C005900D9202
:1070E000A232B107D9F721E0A2E2B1E001C01D92BE
:1070F000A333B207E1F701D065C5CDB7DEB7C15004
:10710000D140DEBFCDBF112484B714BE8D7089F08D
:1071100082E090E041D58E3E61F40FB6F894A895D8
:1071200080916000886180936000109260000FBEC3
:10713000C9D388E199E20FB6F894A89580936000CE
:107140000FBE9093600084E08093810090E080E027
:1071500023D5813021F061E090E080E025D581E009
:1071600090E01AD5833021F063E081E090E01CD5F7
:1071700081E490E011D58B3021F06BE081E490E068
:1071800013D582E490E008D5833021F063E082E4F7
:1071900090E00AD583E490E0FFD48A3021F06AE0E1
:1071A00083E490E001D582E08093C00088E1809381
:1071B000C10086E08093C20080E18093C40082E039
:1071C00090E0EAD48D3D39F46EEE82E090E0ECD4AC
:1071D00081E0809329011CBC84E085B98CE284B9EC
:1071E00084E490E0D9D48F3F01F190E0FC01E057B6
:1071F000FF48249130E0220F331FF901EA57FF487E
:10720000459154915093200140931F01F901E45896
:10721000FF48259134913093010120930001885952
:107220009F48FC01849180931E01E0911F01F09121
:107230002001908180911E01982B9083E0910001A4
:10724000F09101019081892B80835C9A549A80E5AA
:107250008CBD81E08DBD85E490E09ED48F3F09F424
:1072600034C090E0FC01E057FF48249130E0220F49
:10727000331FF901EA57FF48A591B491F901E45889
:10728000FF482591349188599F48FC0184919C9135
:10729000982B9C93F9019081982B90832C91982F97
:1072A000909592239C93EFE1FEE43197F1F700C0B3
:1072B0000000EC918E2B8C93FFEF2DEE82E0F150CD
:1072C00020408040E1F700C0000083E090E064D4FB
:1072D0008535A9F484E090E05FD48A3A81F4E3E054
:1072E000EE2EE1E0FE2E05E010E0C80155D4F701D6
:1072F00081937F010F5F1F4F07311105B1F772E0D6
:10730000E72E71E0F72E10E000E0F70141917F01D8
:1073100064E0C8015FD20F5F1F4F0C311105A9F760
:107320001CE068E0E62EF12C42E0612F8EE190E057
:1073300051D242E0612F8FE190E04CD2F1E0EF1AA0
:10734000F108105EE114F10479F7BFD21092280120
:1073500010922701332433948E010F5F1F4F2E01AB
:1073600021E8420E511C53E0D52EB12CA12C809166
:1073700028018111BBC0809130018111B7C086E224
:1073800090E018D2892B09F4B1C03092270168E649
:1073900082E090E0E9D182FD5CC0B9D2CF5FDE4FE0
:1073A0008883C150D14084E290E004D27C01CF5F59
:1073B000DE4FF881C150D140F23009F481C008F0AD
:1073C00057C0F13009F46AC04AE050E069EB70E759
:1073D000C801D9D34AE0C42E38012C2C4701801AA9
:1073E000910AC401860D971D2A94FFEF2F1278C0D1
:1073F000B7016C0D711D84E290E014D240E26CE69E
:1074000081E090E0E7D168E681E090E0ADD18111C4
:10741000FACFCF5FDE4F2881C150D140243009F030
:1074200065C040E16CE681E090E0D4D10FB6F894FD
:10743000A895809160008861809360001092600040
:107440000FBE40D290E080E0CF5FDE4FDEBFCDBF09
:10745000089544E06CE682E090E0BCD18FEF97E8BD
:10746000E3E181509040E040E1F700C000008FCFA1
:10747000CF5FDE4F2881C150D1402330C1F024308E
:1074800009F0A2CF198284E08A8380912A01909129
:107490002B019B838C8394E0C92E9ECF4CE050E05F
:1074A0006DEA70E7C8016FD33CE0C32E95CF49E089
:1074B00050E064EA70E7C80166D329E0C22E8CCFA1
:1074C00080912A0190912B0120912C0130912D0166
:1074D00028173907B8F690932D0180932C01D2CF4D
:1074E000F30141913F0164E775D17BCF8091270182
:1074F000811116C08091C00087FF12C0FAD030926F
:10750000280101D1813409F04EC0FDD0F82E0ED1F2
:1075100081E8F81609F445C083E001D180E1FFD08D
:10752000F501859194910196E1F08091310190915E
:1075300032010A97B0F082E090E02ED38E3E29F41B
:1075400080912901882309F471CF8091270181302E
:1075500041F4F501D0925700E895B7D1CAD0109206
:107560002701A895209184003091850034FFBEC08A
:1075700085B190E2892785B98091250190912601F6
:107580002817390748F48091310190913201019612
:10759000909332018093310130932601209325018D
:1075A000E6CE8BE0BACF823419F484E1CBD0B6CFEB
:1075B000853411F484E0FACF853569F4A4D0E82E3F
:1075C000F12CA1D0F82AEE0CFF1CF0922401E092DD
:1075D0002301ACD0A3CF863521F484E0B3D080E082
:1075E0009CCF843609F04CC08ED08DD08093220180
:1075F0008AD0E0902301F0902401E11490E7F9068D
:1076000020F4F701D0925700E89548017CD0F401AE
:1076100081934F0180912201815080932201811139
:10762000F5CFE114F0E7FF0620F0F701D092570004
:10763000E8957CD007B600FCFDCF8981D801970181
:10764000201B310BF901EA0FFB1F11969C9111973A
:107650000C0130925700E895112412964A165B06E9
:1076600011F08C91EFCF25E0F70120935700E895BA
:1076700007B600FCFDCF81E180935700E8954ECF1F
:107680008437D1F440D03FD0809322013CD04ED0FB
:10769000E0912301F0912401CF0101969093240100
:1076A0008093230184913BD080912201815080936B
:1076B00022018111EDCF32CF853739F437D08EE1F9
:1076C0002ED085E92CD08FE028CF813509F081CFED
:1076D0002DD06EEE82E090E067D280E120D0EFE91D
:1076E000FFE03197F1F700C00000A0CE2D9844CF05
:1076F00087CC109285001092840010923201109273
:107700003101A89508958091C00087FFFCCF80913A
:10771000C00084FD01C0A8958091C6000895909195
:10772000C00095FFFCCF8093C6000895ECDF803247
:1077300039F088E18093600088E080936000FFCF9B
:1077400084E1EDCFCF93C82FDEDFC150E9F7CF91B1
:10775000EDCFE0911F01F0912001908180911E01F9
:1077600080958923808308951F93CF93DF93EC0145
:10777000162FEFDF8D2F99278EBD0DB407FEFDCF9D
:10778000CEBD0DB407FEFDCF1EBD0DB407FEFDCF6F
:107790001EBC0DB407FEFDCFE0911F01F09120014A
:1077A000808190911E01892B80838EB5DF91CF91CE
:1077B0001F9108951F93CF93DF93EC0168E6D4DF08
:1077C000182F68E6CE010196CFDF912FDF91CF9180
:1077D0001F9108950F931F93CF93DF93EC01062F12
:1077E000142FB7DF8D2F99278EBD0DB407FEFDCF67
:1077F000CEBD0DB407FEFDCF0EBD0DB407FEFDCF0F
:107800001EBD0DB407FEFDCFE0911F01F0912001D8
:10781000808190911E01892B8083DF91CF911F91F0
:107820000F9108950F931F93CF93DF93EC018B017A
:10783000472F55276CE6CE01CDDF402F6CE6CE01F9
:107840000196DF91CF911F910F91C4CF0F931F939A
:10785000CF938C0140E16CE681E090E0BBDFC1E8B2
:1078600068E681E090E080DFC15039F481E08093E8
:107870003001CF911F910F9108958111F1CFC1E88F
:107880004FEF6CE682E090E0A5DF42E06CE690E02E
:1078900080E0A0DFB80184E090E0C4DF41E06CE666
:1078A00081E090E097DF68E681E090E05DDF8111A4
:1078B000FACFC150D9F268E683E090E055DF82321A
:1078C000F9F6D7CFEE27FF270994CF931092300116
:1078D00085E490E0BBDF87E190E05ED18B3BA1F4D3
:1078E00089E190E059D1C82F88E190E055D12C2F43
:1078F00030E0322F2227820F932F911D90932F017A
:1079000080932E01CF91089589E797EBF7CF8F925F
:107910009F92AF92BF92CF92DF92EF92FF920F931E
:107920001F93CF93DF93CDB7DEB7CC50D240DEBFED
:10793000CDBF88E290E03EDF8C01CE0101967C0154
:107940006E0193EFC91A9DEFD90A570148018E18AD
:107950009F08C4018A0D9B1DCA14DB0409F06CC08A
:10796000B801645F7D4F88E290E05CDF40E46CE644
:1079700081E090E02FDF68E681E090E0F5DED82E30
:107980008111F9CF57010CE010E0F50141915F0141
:107990006CE6C8011FDF0F5F1F4F02311105A9F709
:1079A0008F8190E0982F8827A884A80EB92EB11C4B
:1079B0008985282F30E0322F22278A85820F932F46
:1079C000911D0B8510E0102F00272C85020F111D33
:1079D00083309105B9F50933110508F040C0809155
:1079E0002C0190912D0108171907C8F101968017F5
:1079F0009107A8F125E0A21622E0B20680F579DE13
:107A0000C501049710932B0100932A01015011091D
:107A1000102F0027110F9C01200F311F21303047FC
:107A200008F0ABC0A2E0DA2E8115E2E09E0708F074
:107A300048C0F4E0DF2E45C068E796DEF50181938B
:107A40005F0187CFF5E0AF16F2E0BF0640F4843067
:107A500091056CF48130910561F00297E1F080911D
:107A60002E0190912F01F2DEDD24D39402C00697FF
:107A7000B4F78D2DC45FDD4FDEBFCDBFDF91CF9159
:107A80001F910F91FF90EF90DF90CF90BF90AF903C
:107A90009F908F9008952DDE6FEF82E090E084D06C
:107AA00080912E0190912F01D1DE10922D01109224
:107AB0002C0110922B0110922A0112E0D12ED9CF65
:107AC00001969C012F77332721153105C9F7011540
:107AD000110581F4A7014C5C5F4FF70164856C30A0
:107AE00009F04EC06585643909F04AC034964E17D6
:107AF0005F07A1F7D701BB24B394A8014E195F0912
:107B00008A010E57110963E0F62E75E0E72EE1E1D8
:107B1000AE2E28C01D967C911D971C966C911C97CB
:107B2000FA01EA0FFB1F0B01B0925700E8951124F0
:107B30002E5F3F4FB9016F777727672B91F4F801DC
:107B4000EA0FFB1FF0925700E89507B600FCFDCF47
:107B5000E0925700E89507B600FCFDCFA0925700D1
:107B6000E895129628173907A8F2F4E0DF1281CFC2
:107B70006EEE82E090E018D07CCF93E0D92E79CFE2
:107B800085E0D82E76CFFB01DC0102C005900D9276
:107B900041505040D8F70895F999FECF92BD81BD6C
:107BA000F89A992780B50895262FF999FECF1FBA24
:107BB00092BD81BD20BD0FB6F894FA9AF99A0FBE16
:087BC00001960895F894FFCF2F
:107BC800240080C0A80101FFFFFF00AABBCCDDEEA6
:107BD800F1C0A8018200000000000007D0080425B9
:027BE80000009B
:040000030000700089
:00000001FF
